{
  "contractName": "Afriid",
  "abi": [
    {
      "inputs": [
        {
          "internalType": "address",
          "name": "",
          "type": "address"
        }
      ],
      "name": "digitalIdentities",
      "outputs": [
        {
          "internalType": "string",
          "name": "fullName",
          "type": "string"
        },
        {
          "internalType": "uint256",
          "name": "dateOfBirth",
          "type": "uint256"
        },
        {
          "internalType": "string",
          "name": "email",
          "type": "string"
        },
        {
          "internalType": "string",
          "name": "phoneNumber",
          "type": "string"
        },
        {
          "internalType": "string",
          "name": "photoDirectory",
          "type": "string"
        },
        {
          "internalType": "string",
          "name": "fingerprintHash",
          "type": "string"
        },
        {
          "internalType": "string",
          "name": "documentDirectory",
          "type": "string"
        }
      ],
      "stateMutability": "view",
      "type": "function",
      "constant": true
    },
    {
      "inputs": [],
      "name": "digitalInformationCount",
      "outputs": [
        {
          "internalType": "uint256",
          "name": "",
          "type": "uint256"
        }
      ],
      "stateMutability": "view",
      "type": "function",
      "constant": true
    },
    {
      "inputs": [
        {
          "internalType": "string",
          "name": "_fullName",
          "type": "string"
        },
        {
          "internalType": "uint256",
          "name": "_dateOfBirth",
          "type": "uint256"
        },
        {
          "internalType": "string",
          "name": "_email",
          "type": "string"
        },
        {
          "internalType": "string",
          "name": "_phoneNumber",
          "type": "string"
        },
        {
          "internalType": "string",
          "name": "_photoDirectory",
          "type": "string"
        },
        {
          "internalType": "string",
          "name": "_fingerprintHash",
          "type": "string"
        },
        {
          "internalType": "string",
          "name": "_documentDirectory",
          "type": "string"
        }
      ],
      "name": "registerIdentity",
      "outputs": [],
      "stateMutability": "nonpayable",
      "type": "function"
    },
    {
      "inputs": [
        {
          "internalType": "address",
          "name": "_address",
          "type": "address"
        }
      ],
      "name": "viewIdentity",
      "outputs": [
        {
          "components": [
            {
              "internalType": "string",
              "name": "fullName",
              "type": "string"
            },
            {
              "internalType": "uint256",
              "name": "dateOfBirth",
              "type": "uint256"
            },
            {
              "internalType": "string",
              "name": "email",
              "type": "string"
            },
            {
              "internalType": "string",
              "name": "phoneNumber",
              "type": "string"
            },
            {
              "internalType": "string",
              "name": "photoDirectory",
              "type": "string"
            },
            {
              "internalType": "string",
              "name": "fingerprintHash",
              "type": "string"
            },
            {
              "internalType": "string",
              "name": "documentDirectory",
              "type": "string"
            }
          ],
          "internalType": "struct Afriid.PersonalInformation",
          "name": "",
          "type": "tuple"
        }
      ],
      "stateMutability": "view",
      "type": "function",
      "constant": true
    }
  ],
  "bytecode": "0x608060405234801561001057600080fd5b5061115c806100206000396000f3fe608060405234801561001057600080fd5b506004361061004c5760003560e01c80637fd4b80b1461005157806387ef85931461006d57806391cd0725146100a3578063d301a353146100d3575b600080fd5b61006b60048036038101906100669190610bf5565b6100f1565b005b61008760048036038101906100829190610d9d565b61023e565b60405161009a9796959493929190610e61565b60405180910390f35b6100bd60048036038101906100b89190610d9d565b6105b0565b6040516100ca9190611012565b60405180910390f35b6100db61097f565b6040516100e89190611034565b60405180910390f35b6040518060e0016040528088815260200187815260200186815260200185815260200184815260200183815260200182815250600160003373ffffffffffffffffffffffffffffffffffffffff1673ffffffffffffffffffffffffffffffffffffffff168152602001908152602001600020600082015181600001908051906020019061017f929190610985565b506020820151816001015560408201518160020190805190602001906101a6929190610985565b5060608201518160030190805190602001906101c3929190610985565b5060808201518160040190805190602001906101e0929190610985565b5060a08201518160050190805190602001906101fd929190610985565b5060c082015181600601908051906020019061021a929190610985565b509050506000808154809291906102309061107e565b919050555050505050505050565b6001602052806000526040600020600091509050806000018054610261906110f5565b80601f016020809104026020016040519081016040528092919081815260200182805461028d906110f5565b80156102da5780601f106102af576101008083540402835291602001916102da565b820191906000526020600020905b8154815290600101906020018083116102bd57829003601f168201915b5050505050908060010154908060020180546102f5906110f5565b80601f0160208091040260200160405190810160405280929190818152602001828054610321906110f5565b801561036e5780601f106103435761010080835404028352916020019161036e565b820191906000526020600020905b81548152906001019060200180831161035157829003601f168201915b505050505090806003018054610383906110f5565b80601f01602080910402602001604051908101604052809291908181526020018280546103af906110f5565b80156103fc5780601f106103d1576101008083540402835291602001916103fc565b820191906000526020600020905b8154815290600101906020018083116103df57829003601f168201915b505050505090806004018054610411906110f5565b80601f016020809104026020016040519081016040528092919081815260200182805461043d906110f5565b801561048a5780601f1061045f5761010080835404028352916020019161048a565b820191906000526020600020905b81548152906001019060200180831161046d57829003601f168201915b50505050509080600501805461049f906110f5565b80601f01602080910402602001604051908101604052809291908181526020018280546104cb906110f5565b80156105185780601f106104ed57610100808354040283529160200191610518565b820191906000526020600020905b8154815290600101906020018083116104fb57829003601f168201915b50505050509080600601805461052d906110f5565b80601f0160208091040260200160405190810160405280929190818152602001828054610559906110f5565b80156105a65780601f1061057b576101008083540402835291602001916105a6565b820191906000526020600020905b81548152906001019060200180831161058957829003601f168201915b5050505050905087565b6105b8610a0b565b600160008373ffffffffffffffffffffffffffffffffffffffff1673ffffffffffffffffffffffffffffffffffffffff1681526020019081526020016000206040518060e0016040529081600082018054610612906110f5565b80601f016020809104026020016040519081016040528092919081815260200182805461063e906110f5565b801561068b5780601f106106605761010080835404028352916020019161068b565b820191906000526020600020905b81548152906001019060200180831161066e57829003601f168201915b50505050508152602001600182015481526020016002820180546106ae906110f5565b80601f01602080910402602001604051908101604052809291908181526020018280546106da906110f5565b80156107275780601f106106fc57610100808354040283529160200191610727565b820191906000526020600020905b81548152906001019060200180831161070a57829003601f168201915b50505050508152602001600382018054610740906110f5565b80601f016020809104026020016040519081016040528092919081815260200182805461076c906110f5565b80156107b95780601f1061078e576101008083540402835291602001916107b9565b820191906000526020600020905b81548152906001019060200180831161079c57829003601f168201915b505050505081526020016004820180546107d2906110f5565b80601f01602080910402602001604051908101604052809291908181526020018280546107fe906110f5565b801561084b5780601f106108205761010080835404028352916020019161084b565b820191906000526020600020905b81548152906001019060200180831161082e57829003601f168201915b50505050508152602001600582018054610864906110f5565b80601f0160208091040260200160405190810160405280929190818152602001828054610890906110f5565b80156108dd5780601f106108b2576101008083540402835291602001916108dd565b820191906000526020600020905b8154815290600101906020018083116108c057829003601f168201915b505050505081526020016006820180546108f6906110f5565b80601f0160208091040260200160405190810160405280929190818152602001828054610922906110f5565b801561096f5780601f106109445761010080835404028352916020019161096f565b820191906000526020600020905b81548152906001019060200180831161095257829003601f168201915b5050505050815250509050919050565b60005481565b828054610991906110f5565b90600052602060002090601f0160209004810192826109b357600085556109fa565b82601f106109cc57805160ff19168380011785556109fa565b828001600101855582156109fa579182015b828111156109f95782518255916020019190600101906109de565b5b509050610a079190610a48565b5090565b6040518060e00160405280606081526020016000815260200160608152602001606081526020016060815260200160608152602001606081525090565b5b80821115610a61576000816000905550600101610a49565b5090565b6000604051905090565b600080fd5b600080fd5b600080fd5b600080fd5b6000601f19601f8301169050919050565b7f4e487b7100000000000000000000000000000000000000000000000000000000600052604160045260246000fd5b610acc82610a83565b810181811067ffffffffffffffff82111715610aeb57610aea610a94565b5b80604052505050565b6000610afe610a65565b9050610b0a8282610ac3565b919050565b600067ffffffffffffffff821115610b2a57610b29610a94565b5b610b3382610a83565b9050602081019050919050565b82818337600083830152505050565b6000610b62610b5d84610b0f565b610af4565b905082815260208101848484011115610b7e57610b7d610a7e565b5b610b89848285610b40565b509392505050565b600082601f830112610ba657610ba5610a79565b5b8135610bb6848260208601610b4f565b91505092915050565b6000819050919050565b610bd281610bbf565b8114610bdd57600080fd5b50565b600081359050610bef81610bc9565b92915050565b600080600080600080600060e0888a031215610c1457610c13610a6f565b5b600088013567ffffffffffffffff811115610c3257610c31610a74565b5b610c3e8a828b01610b91565b9750506020610c4f8a828b01610be0565b965050604088013567ffffffffffffffff811115610c7057610c6f610a74565b5b610c7c8a828b01610b91565b955050606088013567ffffffffffffffff811115610c9d57610c9c610a74565b5b610ca98a828b01610b91565b945050608088013567ffffffffffffffff811115610cca57610cc9610a74565b5b610cd68a828b01610b91565b93505060a088013567ffffffffffffffff811115610cf757610cf6610a74565b5b610d038a828b01610b91565b92505060c088013567ffffffffffffffff811115610d2457610d23610a74565b5b610d308a828b01610b91565b91505092959891949750929550565b600073ffffffffffffffffffffffffffffffffffffffff82169050919050565b6000610d6a82610d3f565b9050919050565b610d7a81610d5f565b8114610d8557600080fd5b50565b600081359050610d9781610d71565b92915050565b600060208284031215610db357610db2610a6f565b5b6000610dc184828501610d88565b91505092915050565b600081519050919050565b600082825260208201905092915050565b60005b83811015610e04578082015181840152602081019050610de9565b83811115610e13576000848401525b50505050565b6000610e2482610dca565b610e2e8185610dd5565b9350610e3e818560208601610de6565b610e4781610a83565b840191505092915050565b610e5b81610bbf565b82525050565b600060e0820190508181036000830152610e7b818a610e19565b9050610e8a6020830189610e52565b8181036040830152610e9c8188610e19565b90508181036060830152610eb08187610e19565b90508181036080830152610ec48186610e19565b905081810360a0830152610ed88185610e19565b905081810360c0830152610eec8184610e19565b905098975050505050505050565b600082825260208201905092915050565b6000610f1682610dca565b610f208185610efa565b9350610f30818560208601610de6565b610f3981610a83565b840191505092915050565b610f4d81610bbf565b82525050565b600060e0830160008301518482036000860152610f708282610f0b565b9150506020830151610f856020860182610f44565b5060408301518482036040860152610f9d8282610f0b565b91505060608301518482036060860152610fb78282610f0b565b91505060808301518482036080860152610fd18282610f0b565b91505060a083015184820360a0860152610feb8282610f0b565b91505060c083015184820360c08601526110058282610f0b565b9150508091505092915050565b6000602082019050818103600083015261102c8184610f53565b905092915050565b60006020820190506110496000830184610e52565b92915050565b7f4e487b7100000000000000000000000000000000000000000000000000000000600052601160045260246000fd5b600061108982610bbf565b91507fffffffffffffffffffffffffffffffffffffffffffffffffffffffffffffffff82036110bb576110ba61104f565b5b600182019050919050565b7f4e487b7100000000000000000000000000000000000000000000000000000000600052602260045260246000fd5b6000600282049050600182168061110d57607f821691505b6020821081036111205761111f6110c6565b5b5091905056fea26469706673582212209cdb689a639c4fc44473c4fb1c8bf50cca18c5e2e6d0ec5910fd384f23ef58db64736f6c634300080d0033",
  "immutableReferences": {},
  "source": "// SPDX-License-Identifier: UNLICENSED\n\npragma solidity >=0.4.0<0.9.0;\n\n/// @title AfriId Contract\n/// @notice this contract helps in the registration, storage and retrieval of digital data\ncontract Afriid {\n\n    /// @dev struct to hold the personal information of the digital id\n    /// @param fullName full name of the person as it appears on the legal document\n    /// @param dateOfBirth date of birth of the person converted to a timestamp\n    /// @param email email address of the person\n    /// @param phoneNumber phone number of the person\n    /// @param fingerprintHash the captured fingerprint hash of the digital data submitted by the person\n    /// @param photoDirectory directory of the uploaded image\n    /// @param documentDirectory directory of the uploaded document   \n    struct PersonalInformation {\n        string fullName;\n        uint dateOfBirth;\n        string email;\n        string phoneNumber;\n        string photoDirectory;\n        string fingerprintHash;\n        string documentDirectory;\n    }\n\n    /// @notice stores the count of digital data entries as integer\n    uint public digitalInformationCount;\n\n    \n    /// @notice mapping to store the structure data of the digital identity to the wallet address\n    /// @dev public visibility will allow it to be displayed automatically as a getter function\n    mapping(address => PersonalInformation) public digitalIdentities;\n\n    /// @notice takes data and save it to the blockchain\n    /// @param _fullName full naame in the digital data\n    /// @param _dateOfBirth date of birth in the digital data formatted as a timestamp\n    /// @param _email email in the digital data\n    /// @param _phoneNumber phone number parameter in the digital identity\n    /// @param _photoDirectory stores the directory of the uploaded image as a string\n    /// @param _fingerprintHash converted fingerprint received as a hash inform of a string\n    /// @param _documentDirectory directory passed as a string\n    /// @dev this function takes passed parameters from the front end, processes and stores them to the blockchain\n\n    function registerIdentity(string memory _fullName, uint _dateOfBirth, string memory _email, string memory _phoneNumber, string memory _photoDirectory, string memory _fingerprintHash, string memory _documentDirectory) public {\n\n        // create a new person struct and store it in the mapping\n        digitalIdentities[msg.sender] = PersonalInformation({\n            fullName: _fullName,\n            dateOfBirth: _dateOfBirth,\n            email: _email,\n            phoneNumber: _phoneNumber,\n            photoDirectory: _photoDirectory, \n            fingerprintHash: _fingerprintHash,\n            documentDirectory: _documentDirectory\n        });\n\n        digitalInformationCount++;\n\n\n    }\n\n    /// @notice retrieves a person digital details by their addresses\n    /// @param _address address of the mapped digital identity\n    /// @return PersonalInformation returns the personal information as a struct\n    function viewIdentity(address _address) public view returns (PersonalInformation memory) {\n        // retrieving the person struct from the mapping\n        return digitalIdentities[_address];\n    }   \n}",
  "sourcePath": "/Users/mac/Downloads/afriID/contracts/afriid.sol",
  "compiler": {
    "name": "solc",
    "version": "0.8.13+commit.abaa5c0e.Emscripten.clang"
  },
  "schemaVersion": "3.4.16",
  "updatedAt": "2025-02-12T20:44:17.398Z",
  "networkType": "ethereum",
  "devdoc": {
    "kind": "dev",
    "methods": {
      "registerIdentity(string,uint256,string,string,string,string,string)": {
        "details": "this function takes passed parameters from the front end, processes and stores them to the blockchain",
        "params": {
          "_dateOfBirth": "date of birth in the digital data formatted as a timestamp",
          "_documentDirectory": "directory passed as a string",
          "_email": "email in the digital data",
          "_fingerprintHash": "converted fingerprint received as a hash inform of a string",
          "_fullName": "full naame in the digital data",
          "_phoneNumber": "phone number parameter in the digital identity",
          "_photoDirectory": "stores the directory of the uploaded image as a string"
        }
      },
      "viewIdentity(address)": {
        "params": {
          "_address": "address of the mapped digital identity"
        },
        "returns": {
          "_0": "PersonalInformation returns the personal information as a struct"
        }
      }
    },
    "stateVariables": {
      "digitalIdentities": {
        "details": "public visibility will allow it to be displayed automatically as a getter function"
      }
    },
    "title": "AfriId Contract",
    "version": 1
  },
  "userdoc": {
    "kind": "user",
    "methods": {
      "digitalIdentities(address)": {
        "notice": "mapping to store the structure data of the digital identity to the wallet address"
      },
      "digitalInformationCount()": {
        "notice": "stores the count of digital data entries as integer"
      },
      "registerIdentity(string,uint256,string,string,string,string,string)": {
        "notice": "takes data and save it to the blockchain"
      },
      "viewIdentity(address)": {
        "notice": "retrieves a person digital details by their addresses"
      }
    },
    "notice": "this contract helps in the registration, storage and retrieval of digital data",
    "version": 1
  }
}